:1000000000000120750300005D0300005F03000095
:1000100061030000630300006503000000000000AE
:100020000000000000000000000000006703000066
:1000300069030000000000006B0300006D03000076
:100040006F0300006F030000E11500002518000099
:10005000351800006F0300006F0300006F030000FD
:100060006F0300006F0300006F0300006F030000C8
:100070006F0300006F0300006F0300006F030000B8
:100080006F0300006F0300006F0300006F030000A8
:100090006F0300006F0300006F0300006F03000098
:1000A0006F0300006F0300006F0300006F03000088
:1000B0006F0300006F03000000000000000000005C
:1000C0006F0300006F0300006F0300006F03000068
:1000D0006F0300006F0300006F03000000000000CA
:1000E0000000000000000000000000000000000010
:1000F0000000000000000000000000000000000000
:1001000000000000000000000000000000000000EF
:1001100000000000000000000000000000000000DF
:1001200000000000000000000000000000000000CF
:1001300000000000000000000000000000000000BF
:1001400000000000000000000000000000000000AF
:10015000000000000000000000000000000000009F
:10016000000000000000000000000000000000008F
:10017000000000000000000000000000000000007F
:10018000000000000000000000000000000000006F
:10019000000000000000000000000000000000005F
:1001A000000000000000000000000000000000004F
:1001B000000000000000000000000000000000003F
:1001C000000000000000000000000000000000002F
:1001D000000000000000000000000000000000001F
:1001E000000000000000000000000000000000000F
:1001F00000000000000000000000000000000000FF
:10020000354936480A1A02D0072291438D463449AF
:1002100034480A1A06D00722914381F30988022242
:1002200082F3148830483149314A00F044F83148AB
:100230003149324A00F03FF831483249324A00F041
:100240003AF832483249334A00F035F832483349F7
:10025000334A00F030F833483349344A00F02BF881
:1002600033483449344A00F026F8344834490022EF
:1002700000F02CF833483449002200F027F83348C6
:100280003349091A082902DB002202604160314A21
:1002900090471F481F49884205D00268043003B4C4
:1002A000904703BCF7E700208646EC46002000217B
:1002B000294A9047FEE7884207D0521A05D00378B2
:1002C00001300B700131013AF9D17047884202D0F8
:1002D00002700130FAE770470000012000E00020C2
:1002E0000000012000000120383D00000000002037
:1002F00034090020D0030000D0030000883800003B
:10030000383D00000000002000000020D43800002C
:10031000D4380000D4380000D4380000D4380000AD
:10032000D4380000D4380000D4380000363D000036
:100330006C460000340900203409002034090020F4
:1003400001100020041000200410002004100020E0
:10035000043000209D0300008D280000FEE7FEE72A
:10036000FEE7FEE7FEE7FEE7FEE7FEE7FEE7FEE765
:1003700000F002B8FFF7FCBF0F484FF007018843B9
:1003800085460E4880470E48016841F470010160BF
:10039000BFF34F8FBFF36F8FFFF732BF09480A4992
:1003A0000A4A884207D0521A05D0037801300B70F0
:1003B0000131013AF9D1704700000120E92900001C
:1003C00088ED00E0D438000000000020000000208C
:1003D000F0B595B01D46164608460C4600F0C6FF1F
:1003E0001A9B0D93CDE9086500252B46082205A927
:1003F00020460A958DF82C500C9500F0D3FF079BF2
:100400000293069B03939DF814308DF8115003F06E
:100410000302012A1DD1BDF81420059DC3F3C203B8
:10042000C2F383168DF81030B20008230EA92046BF
:1004300000F0B8FFC5F3952508AB0093324602AB38
:100440000EA9284600F08CFB204600F093FF15B063
:10045000F0BD022AF8D1BDF81650C3F3C203C5F3AC
:1004600089158DF810300827082D2E4628BF08263C
:100470003B4632460EA9204600F094FFAD1B08AB68
:1004800002AA31460EA8374400F0CEFB002DEBD176
:10049000DAE70000014B01221A707047750900204D
:1004A0007047000070B50E4D06460FCD88B06C4603
:1004B0000FC495E80F00002E84E80F00094A0A488F
:1004C0004FF0060308BF00226946009301F04AF886
:1004D00008B100F005FC054B1E7008B070BD00BFF0
:1004E000D4380000950400000000002034090020EA
:1004F00007B5044B0093044A4023FFF769FF03B09C
:100500005DF804FB0D0500003509002038B50D48E5
:100510000D4C0E4D002323700378EB5CD2B263B117
:10052000043001F0E7FF08B100F0DAFB084B1A785D
:1005300012B12378002BFBD038BD0C3001F088FDC0
:10054000F1E700BF00000020750900201C0F00200B
:100550003409002008B50848084A0378D35C3BB149
:10056000043001F02BFFBDE808400020FFF79ABFE0
:100570000C3001F0F7FCF6E7000000201C0F002013
:100580000120FFF78FBF000008B5FFF7F9FF04480F
:10059000042100F04FFA034B01225A7108BD00BF3D
:1005A000B038000014000020037813F0040216D0C5
:1005B00003F00303012B03D0022B09D00120704765
:1005C0000A6800880232C0F3831002440A60F5E72B
:1005D0000B684288023303EB92130B60EEE7104680
:1005E000704700002DE9F04FDFF810A10F4685B0ED
:1005F0000446861C0020154600F0C8FBDAF80420EB
:100600003A60DAF8083003F580739B1A0AF21C4747
:100610000AF583690AF21448B34219D30020002D69
:1006200068D004F00F039B0143F0050363F30F0050
:10063000DAF80430DAB2033233444AF822000020F8
:10064000CAF8043000F0A4FB012005B0BDE8F08F2B
:100650000121384600F0C1FB484600F0D6FB404679
:1006600000F0D3FBDAF808000090C0B203300AEBC8
:1006700080006946FFF798FF009B30BBDAB20AEBB7
:100680008202D16801919A1C0133DBB20AEB830329
:100690000092D3F80CB001F00303012B22D0022BFF
:1006A00015D08346404600F0B3FB10B1009BCAF85A
:1006B00008305946384600F090FBDAF80830DAF88E
:1006C000042003F580739B1AA6E7D8B2CEE7BDF8E5
:1006D0000630C3F3891303334FEA1B4B02EB93033A
:1006E0000093DFE7BDF80430C3F383134FEA1B4BDD
:1006F0001344F5E7A40544F0060099E7480A0020F2
:10070000064B074810B500221A7000F0E8FD0446B9
:1007100010B9044800F050FE204610BD480A0020E1
:10072000C03800002839000030B50A4C71B10A4ABF
:100730000A49121BD20800239A4201D1002030BD81
:1007400031F82350854202D00133F5E7034654F8CF
:100750003300F4E788380000B038000000000020C3
:10076000094B013903EBC000032909D8DFE801F088
:100770000A020406042070470079704740797047E8
:10078000002070470220704788380000034BD3E9EF
:100790000130C31A58425841704700BF480A002030
:1007A0002DE9FF41FFF7F2FF0546002840F0E98000
:1007B000754CC4F81804BFF34F8FA3680093DBB2E5
:1007C000033304EB83006946FFF7EEFE009B18B18C
:1007D000D4F81824002A5AD0DAB2991C013304EB59
:1007E0008202DBB204EB8303D268DB68029302F07F
:1007F0000303022B0192009154D1BDF806306348E7
:10080000C3F38917502F3E4628BF502606F1080132
:1008100066F38F13C1F30901ADF8063000F077FDE0
:100820000546002800F0988000F0A0FD0023082273
:1008300001A9284600F0ACFD0099CB43DBB201339F
:10084000C9B20331B6EB830F4FEA830204EB810197
:1008500025D95FFA82F80823A6EB0806284600F09F
:1008600097FDF6B208F10803494903F0FC0332464C
:10087000284600F08DFD009B033703EB9707009798
:10088000D4F81834002B43D1D4F8106453E06268D4
:100890009A4294D8A260284604B0BDE8F0810823AB
:1008A0003246E5E7012B57D1BDF804303748C3F392
:1008B0008311062928BF062161F38913023101F053
:1008C0000F018900ADF8043000F021FD0546002835
:1008D00042D000F04BFD0023082201A9284600F079
:1008E00057FD0026BDF80420C2F38312B3009642E0
:1008F00003F10803C4D200994A1CC9B20331009223
:1009000004EB81010422284600F042FD0136E9E7AC
:10091000284600F02FFDFFF739FF80F00100C5B237
:10092000B9E7F3685B7923B1336829461B68304621
:100930009847F3681E68002EF3D1284600F01AFD90
:10094000304600F023FAD4F818340BB9009BA360AA
:10095000002000F01DFADEE7D4F8104454B90D4B26
:100960000D480E49C01AC008000440F0020000F013
:100970005DF8D0E7236820469B689847E3681C68C9
:10098000ECE7002587E700BF480A0020C0380000D8
:10099000540A002088380000A838000011390000EF
:1009A0002DE9F34704460E46924601A90122184656
:1009B0009946FFF717FE1B4F10B3019D4FF000083B
:1009C000AA1CC84508EB020123D11748002100F0FA
:1009D000E1F980F31000000440EA1440E4006B1CCD
:1009E00004F03804DBB2EDB244F0010407EB8303FA
:1009F000033544EA881444EA8624D86047F8254041
:100A00003B781BB1FFF7CCFE0028FBD102B0BDE85C
:100A1000F087C9B207EB81015AF82830CB6008F1A2
:100A20000108CEE7480A0020640E002000231A4681
:100A3000FFF7B6BF30B50F4CD4F8102403460020A2
:100A4000114631B9D96808714AB9C4F810340A603E
:100A500030BDC9680D79854206D00968F1E7D268D2
:100A600014680C601360F3E701300A28E8D14FF0F6
:100A7000FF30EDE7480A002038B5084B0125D3F8D0
:100A800010441D7004B938BDE3685D7123682046C9
:100A90005B689847E3681C68F4E700BF480A0020D9
:100AA00030B5C38885B004460D4633B1144A009270
:100AB0001449154A284600F005FA217A05291DD067
:100AC000637A4BB1A088FFF74BFE104B104953F8E7
:100AD0002020284600F0F6F9227A0E4BA08853F821
:100AE000222003920021FFF71FFE039A0A490346C2
:100AF000284605B0BDE8304000F0E4B905B030BD8F
:100B0000543900003C39000034390000C03900007D
:100B100059390000E43900005C39000007B503468C
:100B20000846197A052911D05B7A2BB1094A0A497E
:100B3000019000F0C7F901980849019000F0C2F94E
:100B4000019803B05DF804EB00F0B1B9002AF8D0C9
:100B5000F2E700BF54390000593900005139000054
:100B60002DE9F04385B01F460C9D002395F80C90AD
:100B70002B7306460C46904629463846FFF790FFF1
:100B8000B8F1060F09D8DFE808F00412181F28335F
:100B900040003146284600F095F9002229463846A3
:100BA000FFF7BCFF85F80C9005B0BDE8F083226824
:100BB0003146284600F086F9EFE7D4E900233146B4
:100BC000284600F07FF9E8E7A36800933146D4E9AE
:100BD0000023284600F076F9DFE7E3680193A36875
:100BE00000933146D4E90023284600F06BF9D4E79E
:100BF00023690293E3680193A36800933146D4E923
:100C00000023284600F05EF9C7E763690393236970
:100C10000293E3680193A36800933146D4E900236B
:100C2000284600F04FF9B8E708292DE9F74F80462C
:100C30000E4617461C463CD8002593F80C901D73B1
:100C400019461046FFF72CFFDFF888A0DFF888B0C0
:100C5000AE4231D918F805205946204600F032F945
:100C60000135082DF4D11949194DDFF870A020463F
:100C700000F028F94FF0000B5E4522D918F80B2040
:100C80007E2A05D81046019202F05CFD019A00B957
:100C90002E225146204600F015F90BF1010BBBF155
:100CA000080FE9D1012221463846FFF737FF84F8C3
:100CB0000C9003B0BDE8F08F5146204600F002F9D9
:100CC000CEE72946204600F0FDF8E6E7703900003F
:100CD0006E3900006C39000066390000723900007E
:100CE0001FB50021039001AA44F20100CDE90111D2
:100CF00000F004F805B05DF804FB000038B572B6EA
:100D0000FFF7BAFEFFF74CFD0028FBD1104B114C4A
:100D1000114D1249E41AE408240444F00100FFF7DD
:100D200085FED5F8F030DB0700D500BE0C4944F055
:100D30000200FFF77BFEBFF34F8FEA68094B02F416
:100D4000E0621343EB60BFF34F8F00BFFDE700BFCE
:100D500088380000A838000000ED00E0F8390000F5
:100D6000043A00000400FA0572B6024A136801331F
:100D700013607047000F0020034A1368013B1360A3
:100D800003B962B6704700BF000F0020FFF7ECBF49
:100D9000FFF7F2BF10B5034653E8000F0A4643E8D9
:100DA000002494F0000FF7D110BD10B5034653E8AE
:100DB000002F42EA010043E8000494F0000FF6D14E
:100DC00010BD10B5034653E8000F00EA010243E8E6
:100DD000002494F0000FF6D110BD10B5034653E87F
:100DE000002F02EB010043E8000494F0000FF6D15D
:100DF00010BD10B5034653E8002FA2EB010043E8F5
:100E0000000494F0000FF6D110BD0121FFF7CDBF13
:100E10000021FFF7D6BF10B590B1D0E901230168DA
:100E20009B1ADBB20A60013BDBB2FF2B026802D1E6
:100E30000020107110BD11684C1C14600B70F2E79B
:100E40000E20F7E738B504460020FFF79FFF226821
:100E500063681168994213D9481E106011F8013C6B
:100E6000E568218A01FB0355A36811791B1ADBB2DF
:100E7000994200D213710020FFF78AFF284638BD3F
:100E80000025F8E738B5054600200C46FFF77EFF41
:100E90002A681368591C1160E968641A298AB4FB2E
:100EA000F1F41C70BDE838400020FFF771BF826884
:100EB00010B504462AB143690168006998470023C8
:100EC000A36010BD0EB403B5039921B104AB01AA10
:100ED000019300F077F802B05DF804EB03B07047BF
:100EE0000A2938B504460D4602D10D21FFF7F8FF57
:100EF000A3682268591CA160D554D4E901329A42F2
:100F000004D32046BDE83840FFF7D1BF38BD00000C
:100F10002DE9F84F9846DDE90A43154682460F460B
:100F20000A464FF00109AA420FD2C14538BFC14657
:100F300013F0010B01D16CB900240126B8F1010FA7
:100F40001BD908F1FF386E43F8E709F10109B2FB3C
:100F5000F5F2E8E79B070ED5B8F1000F0CBF30267D
:100F60002026A145E9D2013C31465046FFF7B8FFA3
:100F7000002CF6D1E0E72026F3E7B7FBF6F39D421D
:100F8000E1D9DFF83C80B7FBF6F3504618F80310C0
:100F900006FB1377FFF7A4FF3346AB42B6FBF5F62B
:100FA000F1D2BBF1000F02D00CB1A14501D3BDE8D5
:100FB000F88F20215046013CFFF792FFF4E700BF75
:100FC000113A00002DE9F74F0546174688460029DB
:100FD00000F03E8118F8011B49B92B7B002B00F073
:100FE0003781284603B0BDE8F04FFFF760BF2529E1
:100FF00040F0B780002698F800302D2B424608F1CB
:10100000010823D0302B24D02B2B25D000242A2BD1
:1010100002F1010123D13B681A1D1B683A601C4490
:101020000A4613782E2B26D101324FF0000A1046C3
:1010300010F8011BA1F1300CBCF1090F1DD80A23D7
:1010400003FB0A13A3F1300A0246F0E746F001065B
:10105000D1E746F00206CEE746F00406CBE711F8EA
:10106000013CA3F130000928DBD80A2202FB04343A
:10107000303C0A46CBE74FF0000A12F8011B01F0A2
:10108000FB0068289046F8D0782909D86F290CD839
:10109000632962D022D8252963D0582900F088809E
:1010A00098F80030002B95D197E770390829F7D8C8
:1010B00001A353F821F000BF2B120000A110000083
:1010C000A1100000C1110000A11000009F1100003C
:1010D000A1100000A1100000B1110000642901D08E
:1010E0006929DDD13A68D2F80090111D89EAE972C8
:1010F0003960A2EBE9724FF0010B092A35DCD345C8
:1011000038BFD3462CB1B9F1000F01DB720700D50F
:10111000013CB30702D5BAF1000F03D0F00701D4A8
:101120004CBB0024B9F1000F2DDAC9F100092D21C3
:101130002846FFF7D5FE06F00302022A04D1BAF1D1
:10114000000F01D11CBB0024CDE9004653460A2202
:1011500049462846FFF7DCFEA2E73B681A1D1978CE
:101160003A602846FFF7BCFE9AE70A230BF1010B11
:10117000B2FBF3F2C1E7A345D4D220212846013CBB
:10118000FFF7AEFECCE77107D5D52B21D0E7A345FD
:10119000DAD230212846013CFFF7A2FED2E73968B7
:1011A000CDE900460A1D3A6053460A220968D0E795
:1011B00039680A1D3A60CDE9004653461022F5E72A
:1011C0003B681A1D3A6016F00106D3F8009024D14E
:1011D000B9F1000F03D0484602F026FB0646B442A0
:1011E0001DD809F1FF3919F8011F00293FF458AF44
:1011F0002846FFF775FEF6E728460136FFF770FE32
:1012000019F806100029F7D1A642BFF449AF2021F2
:101210002846013CFFF764FEF6E70026F0E72021B0
:101220002846013CFFF75CFED9E73B681A1D3A608F
:10123000302128461C68FFF753FE78212846FFF727
:101240004FFE00220823CDE900322146102280E71C
:1012500003B0BDE8F08F00BF2DE9F84FB0F806A04D
:101260004579D2F800B09DF828900AFB05F5043DB9
:1012700088460BEB0301A94203F1040488BFA5EBE8
:10128000030BB4FBFAF607460AFB1644C2F800B09B
:101290004EB9AAEB04055D4528BF5D46BBF1000FC2
:1012A00004D1BDE8F88F3F68013EF1E7043408EB54
:1012B00006003C442A46B9F1000F0DD02146ABEBA5
:1012C000050B02F055FADA452E443F6855464FF0BB
:1012D000000428BF5D46E1E701462046EFE7FFF73F
:1012E0009ABDF8B546790146721E05460023934221
:1012F0002D6803D30024A64202D8F8BD0133F6E7D7
:101300000F682846FFF7BEFD01343946F3E72DE9A3
:10131000F843068ACD1C0746FFF794FD043E35448A
:101320000446B5FBF6F5F0B14FF48073EDB283805F
:10133000C680013D076081464FF00008A84512D2E3
:101340003846FFF77FFD064648B163790133637184
:1013500008F10108C9F8000007608146EEE7204661
:10136000FFF7BFFF34462046BDE8F8830121043073
:10137000FFF733BD10B5012104460430FFF739FDF6
:10138000C0B220B92046BDE81040FFF7AABF10BD8B
:101390001FB503920022009203AAFFF75DFF05B07C
:1013A0005DF804FB1FB503920122009203AAFFF728
:1013B00053FF05B05DF804FB836800225A60C3E95F
:1013C00004229A60DA601A60704700001FB5037843
:1013D0008DF800308388ADF8043083688DF80630CE
:1013E000C3688DF80730036902934369054A039384
:1013F000054B684653F8213052F82110984705B044
:101400005DF804FB040F00200C0F0020024B4FF48A
:10141000807043F001031847303A00002DE9F0478F
:10142000154690F80090324A42F82950314A42F865
:1014300029304B7B07460C466BB30868496882002D
:101440008B0002F1A04203F1A04340F20C66C2F807
:1014500000674FF0010AC3F800674FF0A0460AFA90
:1014600000F00AFA01F1C6F80805C6F8081540F2BE
:101470000D61C2F80017C3F80017FFF7C7FF4FF060
:101480000008D6F81025636822FA03F3DB070DD5B0
:10149000B8F1000F1DD1002D174A4B4608BF2A4650
:1014A0002146381DBDE8F04700F0CCB923680AFAA0
:1014B00003F3C6F80C35FFF7A9FF23680AFA03F314
:1014C000C6F8083508F10108FFF7A0FFB8F1090FC9
:1014D000D7D1636801264FF0A04806FA03F3C8F895
:1014E0000C35FFF793FF63689E40C8F80865D2E7A4
:1014F0000C0F0020040F0020CD1300001FB503784F
:101500008DF800304368019383688DF80830C36814
:10151000054A0393054B684653F8213052F82110D1
:10152000984705B05DF804FB140F0020180F002049
:101530001FB503788DF800304368019383688DF8F8
:101540000830C368054A0393054B684653F82130B9
:1015500052F82110984705B05DF804FB140F0020E5
:10156000180F0020F0B5194B90F800C091F81DE05D
:1015700043F82C20164B16460A6943F82C20154BCD
:1015800003F80CE00C4607460FCC89B06D460FC53A
:1015900094E80F0085E80F00CDF810C0BEF1000FF1
:1015A00009D0002E0C4A694608BF3246381D00F0AB
:1015B00043FE09B0F0BD002E084A694608BF324616
:1015C00007F10C0000F01AFCF3E700BF180F002031
:1015D000140F00201C0F0020FD1400003115000026
:1015E000014B1B68184700BF200F002038B50B4B7C
:1015F00098420C4601D0002038BD0020FFF7C6FB02
:10160000074B1D7915B901221C601A710020FFF7E4
:10161000BFFB002DEFD01120EEE700BF00200040FF
:10162000200F0020034B984201BF034B00221A6099
:101630001A71704700200040200F00200023435003
:1016400082B043580193019B02B070470B7B032B80
:101650002AD8DFE803F022261A028B685A0304D541
:10166000D0F84C350A699A4207D18B685B031BD4CA
:10167000D0F84C354A699A4216D000230622C0F8A9
:101680000035C0F8002518467047D0F84C350A6977
:101690009A42F2D1D0F83C35ECE7D0F84C350A69E3
:1016A000E9E7D0F83C35FAE701207047F0B5D0F80B
:1016B000243187B004460D46EBB14FF49271FFF729
:1016C000BDFFD0F80431B3B9AB68C0F808330223CA
:1016D000AB60AB68C0F80433D0F860311BB1D0F810
:1016E00000329B0502D4012323626361012385F844
:1016F0002E3007B0F0BDD4F80431002B41D04FF4A8
:1017000082712046FFF79AFF2B6A5F0609D495F88D
:101710002E3033B92946FFF799FF80F0010085F894
:101720002E002B6A5E073ED405F10C070FCF01AEE9
:101730000FC63B6833604FF4B0712046FFF77EFF61
:101740004FF4AE71FFF77AFF95F8303013B195F88A
:101750002E3043B30023C4F80032AB602F4BC4F8E3
:10176000083344F30733002B4FEA14321BDB02F03B
:101770001F015B0901228A406033294941F8232077
:1017800011E04FF4A4712046FFF758FF2B7B23BBD9
:1017900005F10C070FCF01AE0FC63B68336095F81B
:1017A0003030002BD7D0D4F8C434C4F8C4349807F0
:1017B00025D501238DF8003095F830300BB985F828
:1017C0002F302B6A5B0703D595F82E30002B90D075
:1017D000D5E90031684698478BE74FF40073C4F8A9
:1017E000003240F20223AB6003F1CE73C4F8083339
:1017F000AB68C4F804330123A360236279E7590777
:1018000001D50223D6E7DA0701D50323D2E795F8FD
:101810002E30002BCED00423CCE700BF02029C0167
:1018200000E100E001490248FFF740BF280F002017
:101830000030004002494FF04020FFF737BF00BFA3
:101840005C0F00202DE9F84F0679314D4FF0340A36
:101850000AFB06FA05EB0A079B4697F82D308046EF
:101860000C469146002B4FD12A4B006853F82610A6
:10187000FFF7BCFE002849D12168637B87F832302E
:1018800001F5E0724FF0A043B860C7F804B087F8E4
:101890002F0087F8300040F20C6745F80A9043F8B3
:1018A0002270626802F5E07C43F82C70D8F80030B2
:1018B000C3F80815C3F80C25A268C3F82425B9F1AC
:1018C000000F14D0227B43F3073152010029C3F3E8
:1018D0000733D2B213DB104C671887F800230122BC
:1018E000490903F01F0302FA03F344F821303423BB
:1018F00003FB0655012385F82D30BDE8F88F074915
:1019000003F00F03CA54F2E70820F6E71120F4E7CA
:10191000280F0020403A000000E100E014ED00E054
:10192000036802790621C3F80015044B342101FB3A
:101930000233022283F82D20704700BF280F0020B9
:101940002DE9F843DFF8C88290F804900468342643
:1019500006FB0986002386F82E30CB6803F060432F
:10196000B3F1005F0D46174603D010263046BDE8A0
:10197000F883A64BC4F8083396F82F3023B1B36828
:10198000C4F804331126F1E712F0140F0CBF012341
:10199000002386F82F308E46BEE80F0006F10C0CAF
:1019A000ACE80F00DEF80030CCF80030C7F30013CD
:1019B00086F8303037626B78C4F8883520464FF4AB
:1019C0008271FFF73BFE4FF49271FFF737FE4FF441
:1019D000B071FFF733FE4FF4A471FFF72FFE17F03D
:1019E000010318BF0123C4F8503517F0020318BFD4
:1019F0000123C4F840352B78032B00F2B580DFE8D3
:101A000003F084A069022B6903F06043B3F1005F27
:101A1000ABD14FF48073C4F80032EA686B68C4F845
:101A200044254FF4A871C4F84835FFF707FE012399
:101A30002362A360D4F85031002BFBD04FF4A8717F
:101A40002046FFF7FBFDAB682A69C4F84425C4F8BB
:101A50004835342303FB09834FF480229A6008231E
:101A600000263A0704D42A78032A1CBF0122E25038
:101A7000342303FB09F308EB030258F80330002B6F
:101A800075D10125D4F84821D4F80431002B40F059
:101A90008980003A18BF0122D4F82431002B00F0CD
:101AA00088804FF492712046FFF7C8FDD4F860118A
:101AB000D4F8003209B1980504D425626561002983
:101AC000E0D00022D90574D54FF4A4712046FFF769
:101AD000B5FDD7E76B68EA68C4F84425C4F8483513
:101AE0002B6903F06042B2F1005F7FF43EAFAA6859
:101AF000C4F834354FF48453C4F83825C4F80032A0
:101B0000342303FB0983022212E06B68EA68C4F8FD
:101B1000442517F0200FC4F848354FF034030BD09C
:101B20004FF48072C4F8002203FB09834FF4802233
:101B30009A600123236292E74FF40072C4F80022F6
:101B4000DFE76B68EA68C4F83425C4F838354FF429
:101B50008053C4F80032342303FB098302229A60C5
:101B60000123236200237BE70823072679E77B070D
:101B700044BF002393607D0606D4342303FB09830E
:101B80009A6842F002029A60342303FB0988D8F86D
:101B9000083043F40073C8F80830D8F80830C4F8A7
:101BA0000433E3E64FF482712046FFF747FD01223C
:101BB00072E7002A3FF466AF3421D4F8C434C4F885
:101BC000C43401FB0982002082F82F0093B113F086
:101BD000010F14BF4FF40246032648F2012213F00E
:101BE000020F18BF164613F0040F48F2022318BF65
:101BF0001E46BBE67B063FF5B9AE09FB01812046D8
:101C0000FFF724FD002808BF0326AFE602029C016F
:101C1000280F002010B586B00024CDE902349DF8CD
:101C200020308DF80510A342CDE9042401A914BF8A
:101C3000202222468DF80440FFF782FE06B010BD38
:101C40000023435082B043580193019B02B0704778
:101C50000A4610B54FF48E71FFF7F2FF136A9168D0
:101C6000C95C136A01331362C0F81C1510BD8B697F
:101C70000A4610B54FF4847123B9FFF7E1FFD0F89D
:101C8000183510BDFFF7DCFF536AD168D0F818058E
:101C9000C854536A01335362F3E700001FB50123B0
:101CA0008DF80030044BCDE90110D3E900126846ED
:101CB000904705B05DF804FB900F002030B54D4D06
:101CC000D5F804339A0585B051D5D5F82431002BC9
:101CD0004DD04FF492712846FFF7B2FF4FF40173D5
:101CE000C5F80833444B93F829200AB901226A60E9
:101CF000404902228DF80020D1F88024C1F88024C8
:101D000003929A690292DA6801920022C3E90622DC
:101D10006846D3E9001290473648D0F81C315BB1D1
:101D2000354A5169136A99424DD992F82830002BEF
:101D300049D11146FFF78CFF2E48D0F84431002BD3
:101D400056D04FF4A271FFF77BFF2B4B93F829205D
:101D50000AB1012202609A69002A49D0586AD968FA
:101D600000229A6105B0BDE83040FFF797BFD5F873
:101D700004335B07D0D5D5F80831002BCCD01E4CEE
:101D80001C482146FFF773FF636AA2699A42C3D1D8
:101D9000E369E1684BB1A3612369E3600023606AF2
:101DA000E3616362FFF77AFFB6E794F829300BB975
:101DB00001236B600F4B4FF40172C3F8082300231B
:101DC000606AA361EEE70B484FF48E71FFF738FFAE
:101DD0005369002BB0D051690291002391688DF8AE
:101DE0000030019153616846D2E900139847A3E798
:101DF00005B030BD00200040900F00202DE9F843D1
:101E0000534D90F804802C2303FB0853064693F8A7
:101E10002A300C469146002B40F096804D490068D0
:101E2000FFF7E4FB0746002840F090802268306806
:101E3000511C0BD04FF0A04101239340C1F808354D
:101E400002F5E0734FF0030C41F823C061684B1CAE
:101E50001FBF01F5E0734FF0A04C4FF0000E4CF89F
:101E600023E0A369C0F8243594F814C0637DBCF165
:101E7000010F4CEA0303C0F86C35C0F81415C0F824
:101E80000C251DD1A268531C1FBF02F5E0734FF053
:101E9000A0414FF0000C41F823C0E368591C0BD05F
:101EA0004FF0A04C01219940CCF8081503F5E071E2
:101EB0004FF0030E4CF821E0C0F80835C0F81025AB
:101EC0002C2202FB08F2AB18C3F804902369AB5034
:101ED000B9F1000F20D04FF48E71247FFFF7B0FED0
:101EE0004FF4A2713068FFF7ABFE32681A4BC2F8AC
:101EF0000433130B42F307326101002AC9B21EDB1F
:101F00001648841884F800130121520903F01F03B6
:101F100001FA03F340F8223033680422C3F80025A5
:101F20002C2303FB08530022C3E9062283F829204F
:101F30005A61012283F82A203846BDE8F883084A0E
:101F400003F00F03D154E7E70827F5E71127F3E77C
:101F5000900F0020BD1C00008000020000E100E0A6
:101F600014ED00E0F8B503680579304C0022C3F8A1
:101F700000252C2202FB05425268A2B12C4AC3F86C
:101F800008231A0B43F30733002B0CDB02F01F016D
:101F90005B0901228A402033264941F82320BFF300
:101FA0004F8FBFF36F8F0068D0F80C65D0F8141511
:101FB000D0F80835D0F810254FF0FF37BE42C0F8F2
:101FC000147518BF06F5E076C0F80C75C0F80875F2
:101FD000C0F810751EBF4FF0A0474FF0020C47F835
:101FE00026C04E1C1FBF4FF0A04601F5E07102272E
:101FF00046F82170511C1FBF4FF0A04102F5E0725E
:10200000022641F822605A1C1FBF03F5E0734FF00F
:10201000A042022142F82310FFF704FB2C2303FB0C
:102020000544002384F82A306360F8BD900F002037
:102030008402020000E100E00279044B2C2101FB44
:1020400002335869003818BF01207047900F0020F4
:102050002DE9F84F064690F8048089469246FFF72E
:10206000EBFF044600283CD1204F2C2508FB057BC4
:102070004FF48E71CBF814A0CBF80890CBF8200069
:102080008BF828003068FFF7DBFD306801238360A0
:102090005946FFF7DDFDDBF804305D461BBB3068B9
:1020A000DBF814402B6A9C4211D83368D3F81C210A
:1020B000002AFBD00122DA6000202C2303FB0877E2
:1020C00000237B61BDE8F88F95F828303BB9D0F844
:1020D0001C31002BF8D05946FFF7BAFDE2E70F207C
:1020E000EBE71120EEE72046ECE700BF900F002061
:1020F0000023435082B043580193019B02B07047C4
:102100001FB501238DF80030044BCDE90110D3E950
:1021100000126846904705B05DF804FBBC0F002034
:102120007FB5434AD2F82461002E60D010464FF4A8
:102130009271FFF7DDFF02238DF80030D2F8803472
:10214000C2F880340393D2F83C350293394BDA68F5
:1021500001920022C3E906226846D3E900129047A3
:102160003348D0F8443173B14FF4A271FFF7C0FF88
:10217000304B9A693AB10022C3E90622D968D0F8F7
:102180003C05FFF7BDFF2A48D0F82031ABB14FF432
:102190009071FFF7ADFF0123C360264B5A6962B10E
:1021A000D0F84C150291002299688DF80020019119
:1021B0005A616846D3E9001290471D48D0F858315B
:1021C0009BB14FF4AC71FFF793FF1A4B5A6962B1A0
:1021D000D0F84C150291002299688DF800200191E9
:1021E0005A616846D3E90012904704B070BDD2F836
:1021F0001031002BB4D04FF488711046FFF778FFF0
:102200000C4BD2F83C0599698842A9D1DC69D968A0
:1022100064B1D2F8005225F02005C2F800521A69C4
:102220009C61DA60DE61FFF76BFF99E79C61FAE77A
:1022300000200040BC0F00202DE9F8435A4E90F8D2
:102240000480242303FB0863044693F820300D46E2
:102250009146002B40F0A38054490068FFF7C6F96F
:102260000746002840F09D802A682068511C0BD04A
:102270004FF0A04101239340C1F8083502F5E07307
:102280004FF0030C41F823C069684B1C1FBF01F5D8
:10229000E0734FF0A04C4FF0000E4CF823E0AB6918
:1022A000C0F8243595F814C06B7DBCF1010F4CEAE1
:1022B0000303C0F86C35C0F80C25C0F814151DD107
:1022C000AA68531C1FBF02F5E0734FF0A0414FF006
:1022D000000C41F823C0EB68591C0BD04FF0A04C08
:1022E00001219940CCF8081503F5E0714FF0030E79
:1022F0004CF821E0C0F80835C0F81025242202FB74
:1023000008F2B318C3F804902B69B350B9F1000F69
:102310002FD04FF488712A7FFFF7EAFE20684FF430
:102320009071FFF7E5FE20684FF49271FFF7E0FE31
:1023300020684FF4A271FFF7DBFE4FF4AC71206808
:10234000FFF7D6FE23681A49C3F80413190B43F3A9
:1023500007335201002BD2B21CDB1648C51885F892
:10236000002301225B0901F01F0102FA01F140F88C
:10237000231023680822C3F80025242303FB0866E2
:102380000023C6E906337361012386F820303846FE
:10239000BDE8F883084B01F00F015A54E9E708271C
:1023A000F5E71127F3E700BFBC0F00202121000053
:1023B0001003420000E100E014ED00E0F8B5444CE9
:1023C0000579242303FB054302465B680068ABB133
:1023D000404BC0F8083340F30733002B4FEA10316D
:1023E0000CDB01F01F065B090121B14020333A4E9E
:1023F00046F82310BFF34F8FBFF36F8FD0F8003232
:1024000023F02003C0F80032242303FB05439B691B
:102410002BB14FF4A271FFF76BFE012343604FF421
:10242000AC71FFF765FE0123C360242303FB054362
:10243000D0F858110029FBD0996919B1D0F844118E
:102440000029F5D00023C0F800351368D3F80C75C7
:10245000D3F81465D3F80825D3F810154FF0FF3CD6
:102460006745C3F80CC518BF07F5E077C3F814C576
:10247000C3F808C5C3F810C51EBF4FF0A0434FF006
:10248000020C43F827C0771C1FBF4FF0A04306F58E
:10249000E076022743F826704E1C1FBF01F5E0715D
:1024A0004FF0A043022643F82160531C1FBF4FF09A
:1024B000A04302F5E072022143F82210FFF7B2F8C0
:1024C000242303FB0544002384F820306360F8BD17
:1024D000BC0F00201003420000E100E00279044B31
:1024E000242101FB02335869003818BF01207047CE
:1024F000BC0F002001F06043B3F1005F2DE9F0470D
:102500000646884692463BD190F80490FFF7E6FFD6
:102510000446002836D11D4F3068242505FB097577
:102520004FF49071C5F814A0C5F80880FFF7E0FDDE
:102530004FF4AC713068FFF7DBFD33686A69A96856
:10254000C3F84415C3F8482501229A606A68DAB9CD
:10255000D3F82021D3F858011AB90028F8D00F2059
:1025600007E00028FBD10122DA60D3F85821002AC5
:10257000FBD0242303FB097700237B61BDE8F087B0
:102580001020FBE71120F9E72046F7E7BC0F0020F9
:1025900038B5054D044645F001054FF47A40A8478B
:1025A000013CFAD138BD00BF903A000070B500F090
:1025B00015FD012001F058F8012001F05DF800211F
:1025C000084601F047F8002515260A2DECB20CD07C
:1025D000204600F0EDFF44B1B4FBF6F306FB1344D4
:1025E000E4B214B90A2000F0E3FF0135A82DECD1C4
:1025F000BDE8704000F0B2BC73B50024012500F0C6
:102600004DFBA04249DC0024012500F04DFBA04217
:1026100052DCFA20FFF7BCFF00F0E0FC00240125AB
:1026200000F03CFBA04256DC00F03EFB013804B257
:102630000126002C5EDAFA20FFF7AAFF00F0CEFC9C
:1026400000F02CFB013804B20126002C65DA00F002
:102650002BFB013804B20126002C71DAFA20FFF7B7
:1026600097FF00F0BBFC0024012500F01DFBA042F9
:1026700079DC0024012600F011FBA04200F38280E7
:10268000FA20FFF785FF00F069FCFA20FFF780FFD2
:1026900002B0BDE8704000F0A1BC00F005FB0021D5
:1026A000013803B2224608460095043400F047FE84
:1026B00024B200F053FCA2E700F0F0FA0021013848
:1026C000234602B200950846043400F038FE24B2D6
:1026D00000F044FC99E700F0E7FA002301382246B5
:1026E00001B200951846043400F029FE24B200F02F
:1026F00035FC95E700F0D8FA054600F0CFFA691EE0
:102700000138234602B209B200200096043C00F0D2
:1027100016FE24B200F022FC8BE700F0BFFA05465B
:1027200000F0C2FA013D0138224601B2002328B26E
:102730000096043C00F003FE24B200F00FFC84E796
:1027400000F0ACFA054600F0AFFA013D013823462F
:1027500001B2002228B20096043C00F0F0FD24B241
:1027600000F0FCFB78E700F099FA002201382346DC
:10277000114600B20095043400F0E1FD24B200F0EF
:10278000EDFB72E700F08AFA054600F08DFA013D94
:10279000013803B22246002128B20096043400F02A
:1027A000CEFD24B200F0DAFB65E700002DE9F04F22
:1027B0008DB0CDE90212002704AE3D464FF005086A
:1027C00000F0C6FF044600F069FA94FBF0F303FB47
:1027D00010443470757000F0BBFF90FBF8F303EB0E
:1027E0008303C01A013701300A2FB07006F10306C7
:1027F000E6D1254F4FF0050BBDF90880BDF90C90CF
:1028000004AD002401236978CDE900933A4615F818
:10281000030B4346013400F0FEFD0A2CF2D100F018
:102820009DFBC820FFF7B4FE002604ACB2466578D5
:10283000CDE9009A4346617820783A4600F0EBFDF6
:10284000A3781D44EDB2657000F02EFA854214DDC8
:1028500000F07EFF054600F021FA95FBF0F303FB44
:102860001055257084F801A000F072FF90FBFBF377
:1028700003EB8303C01A0130A07001360A2E04F165
:102880000304D4D1B8E700BF963A000013B5002185
:102890000846FDF735FF08B1FEF722FAFDF774FE92
:1028A0001A211B2000F006FA3C210220002200F031
:1028B00027FA364C364B3749E41AE408240444F02E
:1028C00003042046FEF7B2F8FDF76AFF0028FBD1AB
:1028D0004FF47A70FFF75CFE2F492046FEF7A6F80A
:1028E0004FF47A70FFF754FE00F038FB4FF47A7023
:1028F000FFF74EFE20462949FEF798F801231E22D5
:102900002021402000F088FC00F028FB00F066FB4E
:102910000A210846012200F0ADFA00F01FFB4FF437
:102920007A70FFF735FE01231E222021402000F09F
:1029300073FC00F013FB4FF47A70FFF729FEFFF7EA
:1029400035FE4FF47A70FFF723FE00F047FB00F0EE
:1029500005FB4FF47A70FFF71BFE1024FFF74CFEC7
:1029600000F03CFB01230E4A21461E20CDE9004326
:10297000234600F050FD00F0F1FA4FF47A70FFF7B3
:1029800007FE074822462146FFF710FFA83800003F
:1029900088380000533A0000683A0000763A000098
:1029A000963A00004FF08053D3F83001421C04BF28
:1029B0004FF0704393F8E00F831F5842584170471F
:1029C0004FF0704393F8E02F062A09D1D3F8E83F7F
:1029D000C3F30313033B032B02D8024AD05C7047B6
:1029E00000207047BE3A000008B5FFF7DBFF40B19A
:1029F0004FF080538F4AD3F82433C3F30423C2F833
:102A00004035FFF7DDFF10B18B4B8C4A5A67FFF75B
:102A1000C9FF48B14FF080534FF08042D3F84432A1
:102A2000C3F34233C2F83C35FFF7CAFF30B1844AE2
:102A3000D2F8FC3023F08073C2F8FC30FFF7B2FF0D
:102A400040B14FF080430022C3F80C21C3F810219D
:102A5000C3F83825FFF7B4FF20B14FF080430322BD
:102A6000C3F8A025FFF7ACFF60B1764B0522C3F891
:102A700010260122C3F888260022C3F818263F2218
:102A8000C3F814264FF08053D3F83021511C09BFEE
:102A90004FF07043D3F8343193F8E02FD3F8E83F88
:102AA00008BFC3F30313062A4DD1033B032B03D8FE
:102AB000654AD35C002B46D04FF08052634BD2F86E
:102AC0000414C3F82015D2F80814C3F82415D2F85A
:102AD0000C14C3F82815D2F81014C3F82C15D2F82A
:102AE0001414C3F83015D2F81814C3F83415D2F8FA
:102AF0001C14C3F84015D2F82014C3F84415D2F8BA
:102B00002414C3F84815D2F82814C3F84C15D2F889
:102B10002C14C3F85015D2F83014C3F85415D2F859
:102B20003414C3F86015D2F83814C3F86415D2F819
:102B30003C14C3F86815D2F84014C3F86C15D2F8E9
:102B40004424C3F87025FFF72DFF48B14FF08053A0
:102B50004FF08042D3F8583203F04F03C2F8E43EFE
:102B6000FFF720FF48B14FF08043D3F80024D2078D
:102B700044BF6FF00102C3F800244FF08053D3F834
:102B80003021062A0ED1D3F83431033B032B02D86F
:102B90002F4AD35C33B12F4AD2F83C3743F48063D9
:102BA000C2F83C37264AD2F8883043F47003C2F8A2
:102BB0008830BFF34F8FBFF36F8F4FF01023D3F8E0
:102BC0000022002A03DBD3F80432002B2EDA224B3A
:102BD0000122C3F80425D3F80024002AFBD04FF0CB
:102BE00010221521C2F80012D3F80024002AFBD0CD
:102BF0004FF010231522C3F80422174BD3F80024FA
:102C0000002AFBD00022C3F80425D3F80024002AB0
:102C1000FBD0BFF34F8F0A49104BCA6802F4E06241
:102C20001343CB60BFF34F8F00BFFDE70C4B0D4A42
:102C30001A6008BD0030014000C007400DF0ADBA79
:102C400000ED00E000500040B63A000000C0004037
:102C5000BA3A00000010004000E001400400FA050C
:102C60001C0000200090D0031FB54FF0CD62072359
:102C7000CDE902230023CDE900011A460548694643
:102C8000FEF7CCFB044610B90348FEF749FE204688
:102C900004B010BDD83A0000DC3A0000014BB3F993
:102CA00000007047F20F0020014BB3F9000070479D
:102CB000E60F0020034B3C221A70034B01221A70CE
:102CC000FFF7D2BFE80F0020FF0F00201FB5094B10
:102CD0001B7863B10023084900938DF80C308DF800
:102CE0000D0009780548022303AAFEF793FF05B0FB
:102CF0005DF804FBFF0F0020E80F0020DC3A000025
:102D00004C4B2DE9F04118704B4B19704B49002387
:102D10000B804B490B804B49012504464A480D70F6
:102D20004FF6FF71018049480180494949480D70BB
:102D300049490B7080210180484801804848402162
:102D400001804848018048490B70EAB1474F484E1E
:102D50003B684FF0A04805FA03F3C8F808352E4346
:102D60004FF47A40B0473B689D40C8F80C550A259F
:102D70004FF47A40B047013DFAD13A6801239340BD
:102D80004FF0A042C2F80835AE20FFF79FFFD520D4
:102D9000FFF79CFF8020FFF799FFA820FFF796FF21
:102DA0003F20FFF793FFD320FFF790FF0020FFF7AE
:102DB0008DFF4020FFF78AFF8D20FFF787FF012C52
:102DC0000CBF10201420FFF781FF2020FFF77EFFAB
:102DD0000020FFF77BFFA120FFF778FFC820FFF757
:102DE00075FFDA20FFF772FF1220FFF76FFF8120D7
:102DF000FFF76CFF012C0CBF9F20CF20FFF766FF71
:102E0000D920FFF763FF012C0CBF2220F120FFF730
:102E10005DFFDB20FFF75AFF4020FFF757FFA4209C
:102E2000FFF754FFA620FFF751FFBDE8F041AF20A8
:102E3000FFF74CBFF00F0020E80F0020F40F002038
:102E4000F60F0020FE0F0020FA0F0020FC0F0020DC
:102E500000100020E20F0020E40F0020F20F0020FD
:102E6000E00F0020E60F0020F80F0020EC0F0020FC
:102E7000D03A000000282FDB324BB3F900308342F8
:102E80002ADD002928DB304BB3F900308B4223DDEB
:102E90002E4B1B78022B20D0032B29D0012B05D1E0
:102EA0002B4B1B88013B5B1A014618B2012A26D026
:102EB000022A35D082B900290B46B8BFCB1DDB10E2
:102EC000802213FB0200234A01F0070101238B40FB
:102ED000115C21EA0301115470471D4B1B88013B13
:102EE000181A1D4B1B88013B591A00B209B2DDE7C5
:102EF000194B1B88013B1B1A084619B2D6E700295B
:102F00000B46B8BFCB1DDB10802213FB0200114B18
:102F100001F00702012191401A5C114319547047D6
:102F200000290B46B8BFCB1DDB10802213FB02002B
:102F3000084A012301F0070103FA01F1135C59402B
:102F4000C9E700BFF20F0020E60F0020F80F0020B5
:102F5000E20F002020000020E00F0020F0B521202B
:102F600089B0FFF7B3FE0020FFF7B0FE7F20FFF728
:102F7000ADFE2220FFF7AAFE0020FFF7A7FE144DAA
:102F8000144E154F0720FFF7A1FE0023402203F146
:102F900010048DF80C20A4B20DF10D02E95C02F8CA
:102FA000011B01339BB2A342F8D100230093317877
:102FB000112303AA3846FEF72DFE08B1FDF790FE57
:102FC000B4F5806F01D109B0F0BD2346DEE700BF44
:102FD00020000020E80F0020DC3A000002484FF4F7
:102FE0008062002100F0EDBB20000020002930B5F8
:102FF00039DB204CB4F900408C4234DD00281E4CF3
:10300000BEBF121812B20020B4F900408518A542C4
:10301000C4BF221A12B2002A25DDCC1000EBC41066
:10302000164C204401F007040121A140012BC9B234
:1030300016D0022B0BD0B3B9C943C9B20244904297
:1030400011D010F8013B0B4000F8013CF7E70244B7
:10305000904208D010F8013B4B4000F8013CF7E7E4
:103060000244904200D130BD10F8013B0B4300F800
:10307000013CF6E7E00F0020E20F002020000020D6
:103080000028F0B5C0F28380464CB4F90040844279
:103090007DDD0029444CBEBF521812B20021B4F9A4
:1030A00000408D18A542C4BF621A12B2002A6EDD1C
:1030B000C1F3C4063D4F00EBC61611F00701D2B2B2
:1030C00007EB060024D0C1F10805EDB2384CAA4246
:1030D000645D60D2A5EB020E4FF0FF0C4CFA0EFCC3
:1030E000012B0CEA040408D0022B38D0002B4ED15F
:1030F00017F806C02CEA040403E017F806C044EAF7
:103100000C04AA42BC5542D308390A44D2B28030DA
:10311000072A18D9022B00F1800125D1144611F895
:10312000805C083CE4B2ED43072C01F8805C01F1BF
:103130008001F4D8A2F10801C1F3C401013100EB10
:10314000C11002F0070212B31A49012B8A5C1BD08E
:10315000022B1DD0DBB9037823EA020216E017F830
:1031600006C084EA0C04CCE7012B4FF0FF3518BFF2
:103170000025EDB21446083CE4B2072C01F8805C4F
:1031800001F18001F7D8D5E703781A430270F0BD4A
:1031900003785A40FAE7012BAFD0022BDFD0002B87
:1031A000B2D1A5E7E20F0020E00F002020000020B0
:1031B000F03A0000E83A000010B40C4613490978D0
:1031C00002290ED003291BD0012914D110490988E6
:1031D000891A0C1B24B2014620465DF8044BFFF708
:1031E00005BF0B4909880139081A0A490988891A53
:1031F0000C1B00B224B221465DF8044BFFF740BF20
:10320000044909880139081A00B2E4E7F80F0020E0
:10321000E20F0020E00F00202DE9F04F15461FFAC5
:1032200085F81A46C8EBC83385B00F461FFA81F9F6
:103230005B0018FA81F11BB209B2064600930192B5
:10324000FFF718FEA9EB0801019A09B23046FFF713
:1032500011FE18FA86F0019A394600B21FFA86FA72
:10326000FFF708FEAAEB0800019A394600B2FFF703
:1032700001FEC8F1010424B24FF00008A845019AEC
:1032800002DB05B0BDE8F08F002C08DB009B0233A9
:10329000013D19B214FA83F42DB2009124B208F161
:1032A00001081FFA88F70AEB07031BB219FA85F128
:1032B000AAEB070B184609B20FFA8BFB0393CDE973
:1032C0000121FFF7D7FDDDE901215846FFF7D2FDC7
:1032D000AEB2039B019AA9EB0601184609B202910E
:1032E000FFF7C8FDDDE9012158460AEB060BFFF7A1
:1032F000C1FD0FFA8BFB09EB0701AAEB0606019A49
:1033000009B2584636B20291FFF7B4FDDDE901215A
:103310003046FFF7AFFDA9EB0701019A09B2584605
:1033200004EB470402910134FFF7A4FDDDE901211C
:1033300030460FFA88F824B2FFF79CFD9EE72DE98E
:10334000F74F0446581A17461E460D46BDF830B0D2
:1033500000F0E9F90090381B00F0E5F9009B83428A
:10336000824605DD3B4637461E4623462C461D4613
:10337000BC4205DD2B4635461E4623463C461F46CD
:10338000701BA7EB040800F0CEF91FFA88F84FEA8B
:10339000D83303FA88F301904FEA6309B542B4BF0A
:1033A00001264FF0FF36BC4202DD03B0BDE8F08FCE
:1033B000009B5345CBBF28462946214620465A4606
:1033C000FFF758FD019BA9EB03030FFA83F9B9F14D
:1033D000000F9AB2BCBFAD1908EB020304F101045F
:1033E000BCBF2DB20FFA83F924B2DCE72DE9F0411E
:1033F000BDF8187088461E4604468518AC4201DBAD
:10340000BDE8F08120463B46324641460134FFF795
:10341000D3FE24B2F2E72DE9F04F87B01C46BDF988
:1034200040300393E31D48BF04F10E039146DB10C7
:103430000026BDF8442002908846019335464FF09F
:10344000800B03992BB299421FDC07B0BDE8F08FC7
:10345000C91013F801C000F007014BFA01F11CEA92
:10346000010F09D00593029B04921844514600B203
:10347000FFF700FDDDE90423013739B2A142B8B2FC
:10348000E6DB019B01351E44DBE708EB050A00275C
:1034900009EB06030FFA8AFAEFE700002DE9F04F77
:1034A0008BB007460393BDF8503004933C4B9DF816
:1034B0005450B3F90030834259DD3A4BB3F9003030
:1034C0008B4254DD062313FB0503002B4FDD01EB7C
:1034D000C503002B4BDD344B1B781BB9AF2A84BFCF
:1034E0000132D2B202EB82030993062306938BB218
:1034F000059308339BB200240893052C1CBF2B4B6B
:10350000099A059E18BF1B1904EB070A18BF13F888
:103510000290ABB2079304FB05F313FA87F31BB2D7
:1035200007EE903A08BF4FF00009B0460FFA85FB4E
:103530000FFA8AFA19F0010F27D0012D1AD1039A38
:1035400031B25046FFF796FC079B01369844089B22
:10355000B6B2B3424FEA59091FFA88F8EAD1069B7E
:10356000013B013413F0FF0364B20693C5D10BB0E5
:10357000BDE8F08F039B009317EE900A5B465A4616
:103580000FFA88F1FFF732FFDEE7DDE9032393420C
:10359000DAD0012D01D11A46D2E7049BEBE700BF38
:1035A000F20F0020E60F0020E40F0020200400208E
:1035B0000A282DE9F34102460DD11F4A1F4B197805
:1035C000138803EBC10313801D4B00221A800120D6
:1035D00002B0BDE8F0810D28F9D0184B184F1D78C6
:1035E000184B0195DFF850801B88B7F90040009315
:1035F000B8F90060144B20461B883146FFF74EFF98
:10360000124B05EB450004EB40041B7824B2A9B231
:103610003C80002BDBD00E4BB3F900306FF005027D
:1036200002FB0535AC42C1BF06EBC1060023A8F87A
:1036300000603B80CBE700BFF60F0020FE0F0020AC
:10364000F40F0020FA0F0020FC0F002000100020D3
:10365000F20F0020024B1880024B1980704700BF08
:10366000F40F0020F60F0020024B012838BF012084
:1036700018707047FE0F0020024B1880024B188014
:10368000704700BFFA0F0020FC0F00207F2805D8EC
:10369000034B185C034B5B5C18407047002070477D
:1036A000043B0000843B0000A0F16103192B98BF8C
:1036B00020387047A0F14103192B98BF2030704784
:1036C0007F2805D8034B185C034B5B5C18407047A0
:1036D00000207047043B0000843B0000A0F1610320
:1036E000192B98BF20387047A0F14103192B98BFC0
:1036F000203070477F299ABF017001206FF02E00A3
:1037000070475AB10A787F2A0AD800B102600021B6
:1037100019605960501A18BF012070470020704787
:103720006FF02E0070470028B8BF4042704700007D
:1037300008B5034B5B689B681B68984708BD00BFD2
:103740001C09002008B50921FFF7F2FF08BD0000A1
:10375000054B1A68054943F2390001FB0200186065
:10376000C0F30E40704700BF300900206D4EC641C7
:10377000844640EA010313F0030F18D18446202A3F
:103780000BD32DE9F007B1E8F807A0E8F807A2F19C
:103790002002202AF7D2BDE8F007042A07D351F807
:1037A000043B40F8043BA2F10402042AF7D2002AA9
:1037B00005D011F8013B00F8013B013AF9D1604610
:1037C00070478446002A2DD010F0030F04D000F873
:1037D000011B013A26D0F7E7C9B241EA012141EACB
:1037E0000141202A12D3A2F120022DE9F0030B4659
:1037F0000C460D460E460F4688468946A0E8FA0359
:10380000203AFBD2BDE8F00320320BD0042A05D3C6
:1038100040F8041B043A05D0042AF9D200F8011B31
:10382000013AFBD16046704700F1010110F0030F2F
:1038300011D010F8012B002A23D010F0030F0AD06A
:1038400010F8012B002A1CD010F0030F03D010F841
:10385000012B002A15D02DE970004FF001324FF0F6
:10386000803350F8044BA4EB020525EA04051D4003
:1038700000D1F6E7A0F1040070BC10F8012B002A7B
:08388000FBD1A0EB0100704731
:10388800363A0000000000003A3A0000000000004C
:10389800483A0000000000004D3A00000000000017
:0838A8002239000000000303B7
:1038B000F43800000000000000390000140000206F
:1038C00078090020400A0020480A002080090020D2
:0438D00018000000DC
:1038D400FFFFFFFFFFFFFFFFFFFFFFFFFFFFFFFFF4
:1038E40000000000000000000000D60106010000F6
:1038F400F104000055050000A10400007561727414
:103904005F6C6F675F6261636B656E6400426163E5
:103914006B656E647320666C7573686564006170B2
:1039240070000000680E00207F000000E80E0020F8
:103934001B5B313B33316D0025734C6F677320641F
:10394400726F70706564202825642925730D0A0040
:103954001B5B306D002573003C25733E2025733AB4
:103964002000202530327800202020007C002563B0
:10397400001B5B313B33306D001B5B313B33326DDD
:10398400001B5B313B33336D001B5B313B33346DC8
:10399400001B5B313B33356D001B5B313B33366DB4
:1039A400001B5B313B33376D007761726E696E6764
:1039B40000696E666F0064656275670054390000C3
:1039C40075390000343900007D3900008539000064
:1039D4008D390000953900009D390000A53900009B
:1039E40000000000FE390000AD390000B5390000C8
:1039F400BA390000466174616C206572726F72009E
:103A040053797374656D2072657365740030313257
:103A14003334353637383941424344454600000093
:103A24000000000000000000000000000338FDD882
:103A34007047505253005457494D00002518000058
:103A44003518000055415254005541525445005414
:103A54005749207363616E6E65722073746172746A
:103A640065642E002D2D2D205354415254202D2DAC
:103A74002D002D2D2D2074657374647261776C692B
:103A84006E65202D2D2D0000000000000338FDD8A8
:103A9400704700C001C001C003E0F3E0FEF87EFF00
:103AA400339F1FFC0D701BA03FE03FF07CF0707053
:103AB40000300000010100000001010000000000CE
:103AC4000000000000000000000000000338FDD8E2
:103AD40070470000000000000030004000000000BB
:103AE40001000000000103070F1F3F7F0080C0E0BA
:103AF400F0F8FCFE43000000504F5349580000000A
:103B04002020202020202020206828282828202049
:103B140020202020202020202020202020202020A1
:103B24004810101010101010101010101010101059
:103B340084848484848484848484101010101010F9
:103B44001081818181818101010101010101010152
:103B54000101010101010101010101101010101006
:103B64001082828282828202020202020202020223
:103B740002020202020202020202021010101020CB
:103B840000070320041702010857104080000000BA
:103B9400F83A0000FC3B0000103D000053756E0035
:103BA4004D6F6E0054756500576564005468750068
:103BB4004672690053617400000000004A616E009F
:103BC400466562004D617200417072004D6179007A
:103BD4004A756E004A756C00417567005365700044
:103BE4004F6374004E6F760044656300000000006C
:103BF400414D00504D000000343D0000303D0000B8
:103C0400303D0000303D0000303D0000303D0000FC
:103C1400303D0000303D0000303D0000303D0000EC
:103C2400FFFFFFFFFFFFFFFFFFFFFFFFFFFF00009E
:103C3400703C0000A03B0000AC3C0000C03B000016
:103C4400F43B0000543C0000043D0000603C0000D4
:103C5400256D2F25642F257900000000256120257E
:103C640062202565202554202559000053756E6473
:103C74006179004D6F6E6461790054756573646198
:103C840079005765646E6573646179005468757270
:103C94007364617900467269646179005361747573
:103CA40072646179000000004A616E756172790086
:103CB4004665627275617279004D61726368004194
:103CC4007072696C004D6179004A756E65004A75C1
:103CD4006C79004175677573740053657074656D14
:103CE400626572004F63746F626572004E6F766531
:103CF4006D62657200446563656D62657200000003
:103D040025483A254D3A2553000000008D36000021
:103D1400A9360000B5360000C1360000DD360000CB
:103D2400E9360000F536000003370000000000000B
:023D34002E005F
:103D380000000000002000400000000000200040BB
:103D48000000000000000000FF0000000090D00309
:103D5800000000000000000000F00000D00000C0DB
:103D680080404080804040800000C080404080808B
:103D780040408000C0000000C000000070800000CB
:103D8800E010E00000C0300080404040800000C0EB
:103D980080404080000080404080C000000000005B
:103DA800F010101010E00000F010101010000000CB
:103DB80000000000000000000000000000000000FB
:103DC80000000000000000000000000000000000EB
:103DD80000000000000C1010100F00001F00001F52
:103DE8000000001F0000001F00001F0000001F004F
:103DF80000001F00004738070000000000071807F0
:103E080000000007180700000F1010100F00001F17
:103E18000000001F00004F5050483F000000000005
:103E28001F010101010000001F0101010000000045
:103E3800000000000000000000000000000000007A
:103E4800000000000000000000000000000000006A
:103E5800000000000000F8000000000000E010086A
:103E6800080810200000F80808080810E000000002
:103E78000000F80808080810E00000C0202020C052
:103E88000000E0402020C0402020C00000C02020CA
:103E980020C0000000000080601090484888C810CA
:103EA80030C000000000E0402020C00000F88888F2
:103EB800888888700000F8888888080000E05848DA
:103EC8004888000010080888700000000000000002
:103ED8000000000000000F08080808080003040894
:103EE8000808040200000F0808080804030000007E
:103EF80000000F080808080403000007090909055D
:103F080000000F0000000F0000000F000007080865
:103F1800080700000000000F10274848484F4828AD
:103F28002413000000000F0000000F00000F000025
:103F38000001060800000F00000000000004080847
:103F480008070000080C0A0908000000000000002B
:103F58000000000000000000000000000000000059
:103F68000000000000000000000000000000000049
:103F78000000000000000000000000000000000039
:103F88000000000000000000000000000000000029
:103F98000000000000000000000000000000000019
:103FA8000000000000000000000000000000000009
:103FB80000000000000000000000000000000000F9
:103FC80000000000000000000000000000000000E9
:103FD80000000000000000000000000000000000D9
:103FE8000000804020202040800000A00080E08069
:103FF80000E00000000000E00000800000008000F9
:1040080000E0008080000000800000A00000800028
:104018008080000080C0A0A0000000800000008018
:104028000000808080000000800080800000000088
:1040380080800080000000000000000000000000F8
:104048000000000000000000000000000000000068
:104058000000000000000000000000000000000058
:1040680000000F10202022120E00003F00003F2009
:10407800003F02020202023F00001F2020203F00F2
:10408800003F1120201F00002000807F0000FF114A
:1040980020201F00003F00010E300E010E300E01DF
:1040A800001F2020201F00003F0100003F00009F4C
:1040B800A0A0917F000000000000000000000000A8
:1040C80000000000000000000000000000000000E8
:1040D80000000000000000000000000000000000D8
:1040E80000000000000000000000000000000000C8
:1040F80000000000000000000000000000000000B8
:1041080000000000000000000000000000000000A7
:104118000000000000000000000000000000000097
:104128000000000000000000000000000000000087
:104138000000000000000000000000000000000077
:104148000000000000000000000000000000000067
:1041580000000000003E5B4F5B3E3E6B4F6B3E1C19
:104168003E7C3E1C183C7E3C181C577D571C1C5E30
:104178007F5E1C00183C1800FFE7C3E7FF00182407
:104188001800FFE7DBE7FF30483A060E26297929B1
:1041980026407F050507407F05253F5A3CE73C5AE6
:1041A8007F3E1C1C08081C1C3E7F14227F22145FC3
:1041B8005F005F5F06097F017F006689956A60601E
:1041C80060606094A2FFA29408047E040810207E18
:1041D800201008082A1C08081C2A08081E1010109D
:1041E800100C1E0C1E0C30383E3830060E3E0E06E3
:1041F800000000000000005F000000070007001436
:104208007F147F14242A7F2A1223130864623649F4
:104218005620500008070300001C224100004122DC
:104228001C002A1C7F1C2A08083E080800807030E1
:104238000008080808080000606000201008040250
:104248003E5149453E00427F400072494949462156
:1042580041494D331814127F1027454545393C4ACA
:1042680049493141211109073649494936464949E1
:10427800291E000014000000403400000008142229
:104288004114141414140041221408020159090697
:104298003E415D594E7C1211127C7F494949363E98
:1042A800414141227F4141413E7F494949417F097E
:1042B8000909013E414151737F0808087F00417F89
:1042C80041002040413F017F081422417F40404087
:1042D800407F021C027F7F0408107F3E4141413E1F
:1042E8007F090909063E4151215E7F0919294626A1
:1042F8004949493203017F01033F4040403F1F20A5
:1043080040201F3F4038403F63140814630304787B
:1043180004036159494D43007F414141020408109B
:1043280020004141417F04020102044040404040D6
:10433800000307080020545478407F284444383844
:1043480044444428384444287F38545454180008B6
:104358007E090218A4A49C787F0804047800447D90
:1043680040002040403D007F1028440000417F402D
:10437800007C047804787C08040478384444443881
:10438800FC1824241818242418FC7C080404084861
:104398005454542404043F44243C4040207C1C20B2
:1043A80040201C3C4030403C44281028444C90900D
:1043B800907C4464544C4400083641000000770067
:1043C80000004136080002010204023C2623263C74
:1043D8001EA1A161123A4040207A385454555921FF
:1043E80055557941215454784121555478402054E9
:1043F8005579400C1E527212395555555939545435
:10440800545939555454580000457C410002457DA3
:10441800420001457C40F0292429F0F0282528F0A5
:104428007C545545002054547C547C0A097F4932F9
:10443800494949323248484832324A4848303A4174
:1044480041217A3A42402078009DA0A07D39444419
:1044580044393D4040403D3C24FF2424487E4943A4
:10446800662B2FFC2F2BFF0929F620C0887E090315
:1044780020545479410000447D413048484A32383C
:104488004040227A007A0A0A727D0D19317D262968
:10449800292F28262929292630484D402038080860
:1044A800080808080808382F10C8ACBA2F10283494
:1044B800FA00007B000008142A142222142A140887
:1044C800AA005500AAAA55AA55AA000000FF001084
:1044D8001010FF00141414FF001010FF00FF10103C
:1044E800F010F0141414FC001414F700FF0000FF7F
:1044F80000FF1414F404FC141417101F10101F10DC
:104508001F1414141F00101010F0000000001F10DA
:104518001010101F10101010F010000000FF1010E5
:1045280010101010101010FF10000000FF140000F1
:10453800FF00FF00001F10170000FC04F4141417FC
:1045480010171414F404F40000FF00F714141414E2
:10455800141414F700F7141414171410101F101F54
:10456800141414F4141010F010F000001F101F00A1
:1045780000001F14000000FC140000F010F01010E0
:10458800FF10FF141414FF141010101F0000000077
:10459800F010FFFFFFFFFFF0F0F0F0F0FFFFFF006B
:1045A80000000000FFFF0F0F0F0F0F38444438447E
:1045B8007C2A2A3E147E02020606027E027E0263DE
:1045C800554941633844443C04407E201E2006027D
:1045D8007E020299A5E7A5991C2A492A1C4C72015A
:1045E800724C304A4D4D303048784830BC625A469B
:1045F8003D3E494949007E0101017E2A2A2A2A2A8C
:1046080044445F444440514A444040444A51400075
:1046180000FF0103E080FF000008086B6B083612FA
:10462800362436060F090F0600001818000000107F
:1046380010003040FF0101001F01011E00191D1765
:1046480012003C3C3C3C000000000000943B000091
:10465800943B0000943B0000943B0000943B000016
:04466800010000004D
:040000030000037581
:00000001FF
